:1000000061C0B6C17AC079C078C077C076C075C00B
:1000100074C073C072C071C070C06FC06EC06DC05C
:100020006CC06BC06AC069C068C067C066C065C08C
:1000300064C063C0B3C3BEC3A9C3D0C3C3C333C406
:1000400028C4FFC30DC40403090412036100750032
:1000500074006F00680065007A00690010034C00AE
:1000600041005600410020005600310012010101FC
:1000700000000008424231E10001010200010902D2
:100080002200010100803209040000010300000089
:100090000921010100012223000705810308000A4C
:1000A00005010906A101050719E029E71500250149
:1000B0007501950881029501750825651900296566
:1000C0008100C00011241FBECFEFD2E0DEBFCDBF44
:1000D00011E0A0E0B1E0E0ECFAE002C005900D9282
:1000E000AA30B107D9F711E0AAE0B1E001C01D9232
:1000F000A03DB107E1F726D4E1C482CFE9E6F0E004
:10010000808183608083E89A83EC80931E01089548
:100110000F931F93CF93DF9390912E0119160CF03C
:10012000A8C020912B0180912A018D3209F097C03F
:100130008AE5809301019B3009F091C0CCE0D0E0CA
:10014000C21BD109CE5CDE4F8881807609F079C070
:1001500010921C018981882351F410921D018CE1B9
:1001600091E090932D0180932C0132E06DC0853099
:1001700021F48A8180932F0162C0863009F045C046
:100180008B81813019F48CE690E01BC0823041F401
:100190008EE790E090932D0180932C0132E257C0BE
:1001A0008330F9F48A81882341F486E490E09093C7
:1001B0002D0180932C0134E04AC0813041F48AE45F
:1001C00090E090932D0180932C0132E140C0823069
:1001D000E9F58CE590E090932D0180932C0130E1BE
:1001E00036C0813241F480E990E090932D018093F4
:1001F0002C0139E02CC0823249F580EA90E09093DE
:100200002D0180932C0133E222C0883019F481E360
:1002100091E00AC0893021F48A81809331010FC0B6
:100220008A3041F48CE191E090932D0180932C0170
:1002300031E00AC08B3019F483EC80931E0130E06A
:1002400003C0CE016AD2382F20E802C030E020EC93
:100250008F81882339F48E81831728F003C080E0D2
:1002600020E801C0832F20930A018093000110929F
:100270002E018091010184FF49C0809100018F3FD0
:1002800009F444C0182F893008F018E0811B8093CE
:10029000000180910A0180FD02C00BE401C003EC63
:1002A0008F5F80930A0120912C0130912D0186FDF2
:1002B00005C0D901912FE4E1F1E011C0A4E1B1E062
:1002C00080E090E006C0F901E80FF91FE491ED939A
:1002D00001961817C1F705C08D918193915099230C
:1002E000D9F7F901E10FF11DF0932D01E0932C01F5
:1002F00084E191E0612FB8D1183019F08FEF80932D
:100300000001009313011C5F109301019AE089B171
:10031000857031F49150D9F710922F011092290174
:10032000DF91CF911F910F9108951F93DC01162F3C
:100330008091020184FF0AC080911E0198E88927FC
:1003400080931E01912FEFE1F1E007C08AE58093D1
:100350000201F8CF8D91819391509923D9F78FE1C4
:1003600091E0612F81D11C5F109302011F910895CC
:10037000CF93CFB7CF93489BFECF489B09C0489BF4
:1003800007C0489B05C0489B03C0489B01C09EC056
:10039000DF93C0912B01DD27CE5CDE4F489B02C06E
:1003A000DF91EBCF2F930F931F9309B12FEF00FB3A
:1003B00020F94F933F9319B14FEF012700FB21F92B
:1003C0003BE031C04E7F012F19B1216028C0102FB2
:1003D0004D7F2260000009B129C04B7F2460012FAE
:1003E000000019B12BC019B1477F28602AC04F7E89
:1003F00009B120612CC04F7D19B120622FC04F7B05
:1004000009B1206432C0422709B149934FEF00007F
:10041000102710FB20F919B11570A9F1297F91F26D
:10042000012700FB21F909B1237F89F23150F0F156
:10043000102710FB22F919B1277E79F2012700FB62
:1004400023F92F7C81F209B1102710FB24F92F79B1
:1004500071F200C019B1012700FB25F92F7359F281
:1004600000C009B1102710FB26F9223040F200C06D
:1004700019B1012700FB27F9243028F64F772068AF
:1004800019B10000F9CF3B503195333011E01CBB5E
:10049000B8F0C31BD0400881033C41F10B3431F16B
:1004A0001981412F1F7720912901121731F4093644
:1004B00091F10D3279F0013E69F02227209330014D
:1004C0003F914F911F910F912F91DF91CF91CFBF0E
:1004D000CF911895009330013F914F911F910F914B
:1004E0002F91DF91CCB3C0FD46CFF0CF009130010A
:1004F000002331F310912E011123A1F53430A2F124
:1005000030932E0100932A0110912B013BE0311B07
:1005100030932B0129C000912E0101301CF50AE512
:1005200047FD09C03091010134FD20C00093010155
:10053000C3E1D1E01FC03091020134FD17C0009328
:100540000201CEE1D1E016C0052710E00BB91FC0B3
:10055000052722C0052727C005272CC0052710E046
:100560000BB933C04AE503C042ED01C0432FC4E1DB
:10057000D0E032E01AB11560589A0BB11AB95F9306
:1005800055E020E820FF05270BB9279517951C3F5C
:10059000D8F620FF052727950BB917951C3FC0F605
:1005A00020FF0527279517950BB91C3F98F620FFCC
:1005B0000527279517951C3F0BB970F600C0499188
:1005C00020FF05270BB9279517951C3F38F620FF0C
:1005D000052727950BB917951C3F38F520FF0527F0
:1005E000279517950BB91C3F10F520FF0527279578
:1005F00017951C3F0BB9E8F4242F3A9519F60A7F9A
:100600005F910BB900C010912F01C651D04011F07D
:100610001093290111E01CBB01601AB11A7F402F11
:100620004A7F0BB91AB94BB94BCF0527D3CF052752
:10063000D8CF0527DDCFA82FB92F8FEF9FEF41E04F
:1006400050EA615070F02D9138E0722F782796951E
:100650008795269570FF02C0842795273A95A9F7BC
:10066000F0CF809590950895E6DF8D939D93089542
:10067000F999FECF81BDF89A80B50895F999FECF1A
:100680001FBA81BD60BD0FB6F894FA9AF99A0FBEF1
:100690000895FC01DB018D919C91918380830895E5
:1006A0008091CD01882339F120914801E22FF0E0BB
:1006B000EE0FFF1FE75BFE4F90910E0181819817AF
:1006C00080F080818093CA01922F9F5F90934801B0
:1006D0008091CC01981710F01092480110920E01F1
:1006E00002C01092CA0181E080930C0180910E013A
:1006F0008F5F80930E018091CA0108951092CD0101
:100700001092CC01F999FECF1FBA11BC10BC0FB6E4
:10071000F894FA9AF99A0FBE0895FC0180E191E0ED
:1007200090932D0180932C01808180768032D9F4C2
:100730008181813039F41092100184E0809311019D
:1007400082E00895823041F482E191E090932D019E
:1007500080932C0181E008958A3029F4838180936D
:10076000120180E0089580E008958091CB018823F4
:1007700009F49CC01092CA0190E0FC013197E93065
:10078000F10508F090C0E65EFF4F09948091C90121
:100790008F5F8093C901863488F409C08091C901B4
:1007A000803110F485E401C086508093C9018091A6
:1007B000C90176C08091C901803410F084E0F5CF82
:1007C0008A5FF3CF8091CF01873010F01092CF0174
:1007D0008091CF018F5F8093CF0161C09091CC0158
:1007E000292F30E0D901AA0FBB1FA75BBE4F809114
:1007F000C9018C93E091CF01F0E0ED5FFE4F808165
:1008000011968C93F999FECF2F5F3F4FE92FF0E0BF
:10081000EE0FFF1FE75BFE4F60817181C901880FFA
:10082000991F4EE353E035D11092CF018091CC0156
:100830008F5F8093CC01803410F01092CC0188E25D
:100840002FC01092CD011092CC01F999FECF1FBAA2
:1008500011BC10BC0FB6F894FA9AF99A0FBE08951D
:100860008091CC01F999FECF1FBA11BC80BD0FB6A3
:10087000F894FA9AF99A0FBEF999FECF8091CD01BA
:10088000882321F481E08093CD0108951092CD0159
:1008900008958091CC01893410F089E001C0835E15
:1008A0008093CA0108951092CA0108958091CD01E4
:1008B000882311F41092CA0108950F931F93CF93C8
:1008C000DF93F999FECFF999FECF11BCF89A80B564
:1008D0008093CC01F999FECF8823F9F08834D8F4BD
:1008E000C2E0D0E0082F10E00F5F1F4F000F111F74
:1008F0000EC0F999FECFCE0168E373E0B4D0F99948
:10090000FECFFE01E95BFE4F918380832296C017E4
:10091000D10779F702C01092CC01109248011092D1
:100920000E011092CA0181E08093CE011092CD0198
:1009300084E08093C9011092CF01DF91CF911F9184
:100940000F9108950F931F93CF93DF932FE088E1CA
:1009500090E00FB6F894A895809360000FBE2093A6
:1009600060008FEF85B914B888B917B88AEF8BB9D2
:1009700087E08AB982E08AB985E186BD85E085BDD8
:1009800014BCBCDB789499DF81E080930C01C0E05B
:10099000D0E011E005E1A895BBDB36B121E090E0A5
:1009A000822F83239F5F8823F9F0963011F0220F66
:1009B000F7CF33B121E090E0822F832311F4995FC8
:1009C00013C09F5F963011F0220FF6CF39B128E0A7
:1009D00090E0822F832311F4935F06C09F5F9530D0
:1009E00011F0220FF6CF90E09093CB0121968CE985
:1009F000C134D80710F0C0E4DCE980910B018917FD
:100A000061F0C95ED34018F0B0DE10930C01809104
:100A1000CB0180930B01C0E0D0E0A89B0EC006BDC7
:100A200015BB80910F01853018F010920F0138DE50
:100A300080910F018F5F80930F0180910C018823BB
:100A400009F4A9CF8091020184FFA5CF10920C0177
:100A50008091CA01109210018093110180E191E010
:100A600062E063DC98CFDF92EF92FF920F931F93C7
:100A70007B018C01FB010995D82EC8010196F70175
:100A80000995982F8D2D1F910F91FF90EF90DF907A
:100A90000895DF92EF92FF920F931F93D72E7A0162
:100AA0008C01FA010995C80101966D2DF701099590
:100AB0001F910F91FF90EF90DF900895F894FFCF72
:0A0AC000FF5A5A0A0A141E28323C9D
:00000001FF
