:1000000063C0B8C17CC07BC07AC079C078C077C0FB
:1000100076C075C074C073C072C071C070C06FC04C
:100020006EC06DC06CC00403090412036F0062004F
:100030006400650076002E00610074001003480023
:10004000490044004B006500790073001201010172
:1000500000000008424231E10001010200010902F2
:1000600022000101008032090400000103000000A9
:100070000921010100012223000705810308000A6C
:1000800005010906A101050719E029E71500250169
:100090007501950881029501750825651900296586
:1000A0008100C000000204020502060207020802E5
:1000B00009020A020B020C020D020E020F021002CC
:1000C000110212021302140011241FBECFE5D4E066
:1000D000DEBFCDBF10E0A0E6B0E0E2E3F8E002C092
:1000E00005900D92A436B107D9F710E0A4E6B0E070
:1000F00001C01D92AD39B107E1F718D398C380CF85
:1001000085B7836085BF8BB780648BBF83EC80939A
:10011000730008950F931F93CF93DF939091830003
:1001200019160CF0A8C02091800080917F008D32BC
:1001300009F097C08AE5809361009B3009F091C077
:10014000CCE0D0E0C21BD109C957DF4F888180764F
:1001500009F079C0109271008981882351F41092BE
:10016000720081E790E0909382008093810032E0FA
:100170006DC0853021F48A818093840062C086300E
:1001800009F045C08B81813019F48CE490E01BC0EC
:10019000823041F48EE590E090938200809381005C
:1001A00032E257C08330F9F48A81882341F486E231
:1001B00090E0909382008093810034E04AC08130C7
:1001C00041F48AE290E0909382008093810032E1D2
:1001D00040C08230E9F58CE390E0909382008093F8
:1001E000810030E136C0813241F480E790E09093A5
:1001F00082008093810039E02CC0823249F580E88A
:1002000090E0909382008093810033E222C0883096
:1002100019F486E890E00AC0893021F48A8180933D
:1002200086000FC08A3041F481E790E0909382000D
:100230008093810031E00AC08B3019F483EC809305
:10024000730030E003C0CE0115D2382F20E802C081
:1002500030E020EC8F81882339F48E81831728F0D9
:1002600003C080E020E801C0832F209364008093C6
:100270006000109283008091610084FF49C08091EA
:1002800060008F3F09F444C0182F893008F018E04F
:10029000811B809360008091640080FD02C00BE4AC
:1002A00001C003EC8F5F8093640020918100309146
:1002B000820086FD05C0D901912FE9E6F0E011C06A
:1002C000A9E6B0E080E090E006C0F901E80FF91F70
:1002D000E491ED9301961817C1F705C08D918193B4
:1002E00091509923D9F7F901E10FF11DF0938200A4
:1002F000E093810089E690E0612FB8D1183019F0C1
:100300008FEF80936000009368001C5F1093610082
:100310009AE080B3857031F49150D9F7109284003F
:1003200010927E00DF91CF911F910F9108951F933E
:10033000DC01162F8091620084FF0AC08091730057
:1003400098E8892780937300912FE4E7F0E007C0D5
:100350008AE580936200F8CF8D9181939150992323
:10036000D9F784E790E0612F81D11C5F1093620080
:100370001F910895CF93CFB7CF93809BFECF809BE3
:1003800009C0809B07C0809B05C0809B03C0809BE9
:1003900001C09EC0DF93C0918000DD27C957DF4FA9
:1003A000809B02C0DF91EBCF2F930F931F9300B37D
:1003B0002FEF00FB20F94F933F9310B34FEF01272E
:1003C00000FB21F93BE031C04E7F012F10B32160CB
:1003D00028C0102F4D7F2260000000B329C04B7F42
:1003E0002460012F000010B32BC010B3477F28609A
:1003F0002AC04F7E00B320612CC04F7D10B3206215
:100400002FC04F7B00B3206432C0422700B3499312
:100410004FEF0000102710FB20F910B31570A9F161
:10042000297F91F2012700FB21F900B3237F89F294
:100430003150F0F1102710FB22F910B3277E79F22A
:10044000012700FB23F92F7C81F200B3102710FB5A
:1004500024F92F7971F200C010B3012700FB25F9B0
:100460002F7359F200C000B3102710FB26F9223079
:1004700040F200C010B3012700FB27F9243028F612
:100480004F77206810B30000F9CF3B5031953330DF
:1004900010E41ABFB8F0C31BD0400881033C41F1FF
:1004A0000B3431F11981412F1F7720917E001217F3
:1004B00031F4093691F10D3279F0013E69F02227CD
:1004C000209385003F914F911F910F912F91DF91C4
:1004D000CF91CFBFCF911895009385003F914F9159
:1004E0001F910F912F91DF91CAB7C6FD46CFF0CF74
:1004F00000918500002331F3109183001123A1F5B1
:100500003430A2F13093830000937F00109180007B
:100510003BE0311B3093800029C000918300013003
:100520001CF50AE547FD09C03091610034FD20C08B
:1005300000936100C8E6D0E01FC03091620034FD36
:1005400017C000936200C3E7D0E016C0052710E093
:1005500002BB1FC0052722C0052727C005272CC0C6
:10056000052710E002BB33C04AE503C042ED01C0DD
:10057000432FC4E1D0E032E011B31560909A02B38A
:1005800011BB5F9355E020E820FF052702BB2795AC
:1005900017951C3FD8F620FF0527279502BB179516
:1005A0001C3FC0F620FF05272795179502BB1C3F6F
:1005B00098F620FF0527279517951C3F02BB70F67C
:1005C00000C0499120FF052702BB279517951C3FC6
:1005D00038F620FF0527279502BB17951C3F38F5F5
:1005E00020FF05272795179502BB1C3F10F520FF1C
:1005F0000527279517951C3F02BBE8F4242F3A9551
:1006000019F60A7F5F9102BB00C010918400C651A9
:10061000D04011F010937E0010E41ABF016011B3B6
:100620001A7F402F4A7F02BB11BB42BB4BCF05272D
:10063000D3CF0527D8CF0527DDCFA82FB92F8FEF30
:100640009FEF41E050EA615070F02D9138E0722F39
:10065000782796958795269570FF02C08427952761
:100660003A95A9F7F0CF809590950895E6DF8D93A0
:100670009D930895FC0185E690E09093820080931D
:10068000810080818076803209F04EC08181813086
:1006900009F039C036B321E090E0822F83239F5FB9
:1006A000882311F4892F21C0963011F0220FF5CF45
:1006B00033B321E090E0822F832319F4892F895FDF
:1006C00014C09F5F963011F0220FF5CF30B328E0B1
:1006D00090E0822F832319F4892F835F06C09F5FE8
:1006E000953011F0220FF5CF80E0E82FF0E0EE0F0B
:1006F000FF1FED55FF4F8591949190936600809375
:10070000650082E00895823041F487E690E090939E
:1007100082008093810081E008958A3029F48381EA
:100720008093670080E0089580E00895CF92DF9283
:10073000EF92FF920F931F932FE088E190E00FB6A6
:10074000F894A89581BD0FBE21BD8FEF88BB17BA65
:1007500085BB14BA8AEF82BB87E081BB82E081BB94
:1007600085E083BFCDDC7894DD24EE24FF24CC2407
:10077000C39404C0EE24E394D02EF12EA895CADCD5
:1007800036B321E090E0822F83239F5F882311F40A
:10079000092F21C0963011F0220FF5CF33B321E09D
:1007A00090E0822F832319F4092F095F14C09F5F03
:1007B000963011F0220FF5CF30B328E090E0822F71
:1007C000832319F4092F035F06C09F5F953011F052
:1007D000220FF5CF00E0D01611F0EE24E39408B616
:1007E00000FE0BC0C8BE10916700112331F084E0F9
:1007F0008F1538F41F2D155001C01F2DEE2009F460
:10080000BBCF8091620084FFB5CFE02FF0E0EE0F08
:10081000FF1FED55FF4F8591949190936600809353
:10082000650085E690E062E082DDEE24A5CFF894D5
:02083000FFCFF8
:04083200FF5A5A000F
:00000001FF
